{
  "contractName": "LinkedList",
  "abi": [
    {
      "constant": true,
      "inputs": [
        {
          "name": "",
          "type": "bytes32"
        }
      ],
      "name": "nodePointers",
      "outputs": [
        {
          "name": "next",
          "type": "bytes32"
        },
        {
          "name": "stake",
          "type": "uint256"
        },
        {
          "name": "symbol",
          "type": "bytes32"
        }
      ],
      "payable": false,
      "stateMutability": "view",
      "type": "function"
    },
    {
      "constant": true,
      "inputs": [],
      "name": "head",
      "outputs": [
        {
          "name": "",
          "type": "bytes32"
        }
      ],
      "payable": false,
      "stateMutability": "view",
      "type": "function"
    },
    {
      "inputs": [],
      "payable": false,
      "stateMutability": "nonpayable",
      "type": "constructor"
    },
    {
      "anonymous": false,
      "inputs": [
        {
          "indexed": false,
          "name": "head",
          "type": "bytes32"
        },
        {
          "indexed": false,
          "name": "stake",
          "type": "uint256"
        },
        {
          "indexed": false,
          "name": "symbol",
          "type": "bytes32"
        },
        {
          "indexed": false,
          "name": "next",
          "type": "bytes32"
        }
      ],
      "name": "AddEntry",
      "type": "event"
    },
    {
      "constant": false,
      "inputs": [
        {
          "name": "_headSymbol",
          "type": "bytes32"
        }
      ],
      "name": "deleteNode",
      "outputs": [
        {
          "name": "deletedStake",
          "type": "uint256"
        }
      ],
      "payable": false,
      "stateMutability": "nonpayable",
      "type": "function"
    },
    {
      "constant": false,
      "inputs": [
        {
          "name": "_newStake",
          "type": "uint256"
        },
        {
          "name": "_newSymbol",
          "type": "bytes32"
        }
      ],
      "name": "addNode",
      "outputs": [],
      "payable": false,
      "stateMutability": "nonpayable",
      "type": "function"
    }
  ],
  "bytecode": "0x608060405234801561001057600080fd5b5060006001026000816000191690555061051c8061002f6000396000f300608060405260043610610062576000357c0100000000000000000000000000000000000000000000000000000000900463ffffffff168063395cd40f146100675780636d25160a146100a25780638f7dcfa314610105578063f12a796b14610138575b600080fd5b34801561007357600080fd5b506100a060048036038101908080359060200190929190803560001916906020019092919050505061017d565b005b3480156100ae57600080fd5b506100d16004803603810190808035600019169060200190929190505050610366565b6040518084600019166000191681526020018381526020018260001916600019168152602001935050505060405180910390f35b34801561011157600080fd5b5061011a610390565b60405180826000191660001916815260200191505060405180910390f35b34801561014457600080fd5b506101676004803603810190808035600019169060200190929190505050610396565b6040518082815260200191505060405180910390f35b600080600061018a6104c8565b600080600102945060005493505b6000600102846000191614151561035d5760016000856000191660001916815260200190815260200160002060010154925086831015610333576060604051908101604052808560001916815260200188815260200187600019168152509150816020015182604001514260405160200180848152602001836000191660001916815260200182815260200193505050506040516020818303038152906040526040518082805190602001908083835b60208310151561026d5780518252602082019150602081019050602083039250610248565b6001836020036101000a0380198251168184511680821785525050505050509050019150506040518091039020905081600160008360001916600019168152602001908152602001600020600082015181600001906000191690556020820151816001015560408201518160020190600019169055905050600060010285600019161415156103225780600160008760001916600019168152602001908152602001600020600001816000191690555061032e565b80600081600019169055505b610358565b8394506001600085600019166000191681526020019081526020016000206000015493505b610198565b50505050505050565b60016020528060005260406000206000915090508060000154908060010154908060020154905083565b60005481565b6000806000806000600102925060005491505b600060010282600019161415156104bf576001600083600019166000191681526020019081526020016000206002015490508460001916816000191614156104965760006001028360001916141561042a57600160008054600019166000191681526020019081526020016000206000015460008160001916905550610470565b6001600083600019166000191681526020019081526020016000206000015460016000856000191660001916815260200190815260200160002060000181600019169055505b6001600083600019166000191681526020019081526020016000206001015493506104c0565b8192506001600083600019166000191681526020019081526020016000206000015491506103a9565b5b505050919050565b60606040519081016040528060008019168152602001600081526020016000801916815250905600a165627a7a723058209a316f38d2250aa74798c5cc1bd0c7744bb28d3357cda2d120b7635984ef57a60029",
  "source": "pragma solidity ^0.4.23;\n\ncontract LinkedList {\n\n\tevent AddEntry(bytes32 head,uint stake,bytes32 symbol,bytes32 next);\n\n\tbytes32 public head;\n\tmapping(bytes32 => Node) public nodePointers;\n\n\tstruct Node{\n\t\tbytes32 next;\n\t\tuint256 stake;\n\t\tbytes32 symbol;\n\t}\n\t\n\tconstructor() public{\n\t\thead = bytes32(0);\n\t}\n\n\tfunction deleteNode(bytes32 _headSymbol) public returns(uint256 deletedStake){\n\t\tbytes32 prevPointer = 0;\n\t\tbytes32 curPointer = head;\n\t\twhile(curPointer != 0){\n\t\t\tbytes32 curSymbol = nodePointers[curPointer].symbol;\n\t\t\tif(curSymbol ==_headSymbol){\n\t\t\t\t//If you are at head node\n\t\t\t\tif(prevPointer == 0){\n\t\t\t\t\thead = nodePointers[head].next;\n\t\t\t\t}\n\t\t\t\t//If you are not at head node\n\t\t\t\telse {\n\t\t\t\t\tnodePointers[prevPointer].next = nodePointers[curPointer].next;\n\t\t\t\t}\n\t\t\t\treturn nodePointers[curPointer].stake;\n\t\t\t}\n\t\t\tprevPointer = curPointer;\n\t\t\tcurPointer = nodePointers[curPointer].next;\n\t\t}\n\t}\n\n\tfunction addNode(uint256 _newStake, bytes32 _newSymbol) public{\n\t\tbytes32 prevPointer = 0;\n\t\tbytes32 curPointer = head;\n\t\twhile(curPointer != 0){\n\t\t\tuint256 curStake = nodePointers[curPointer].stake;\n\t\t\tif(curStake < _newStake){\n\t\t\t\tNode memory newNode = Node(curPointer, _newStake, _newSymbol);\n\t\t\t\tbytes32 newPointer = keccak256(abi.encodePacked(newNode.stake, newNode.symbol, now));\n\t\t\t\tnodePointers[newPointer] = newNode;\n\t\t\t\tif(prevPointer != 0){\n\t\t\t\t\tnodePointers[prevPointer].next = newPointer;\n\t\t\t\t} else {\n\t\t\t\t\thead = newPointer;\n\t\t\t\t}\n\t\t\t} else {\n\t\t\t\tprevPointer = curPointer;\n\t\t\t\tcurPointer = nodePointers[curPointer].next;\n\t\t\t}\n\t\t}\n\t}\n}",
  "sourcePath": "/Users/talaltoukan/Documents/Blockchain/ShitList/contracts/LinkedList.sol",
  "compiler": {
    "name": "solc",
    "version": "0.4.24+commit.e67f0147.Emscripten.clang"
  },
  "schemaVersion": "2.0.1",
  "updatedAt": "2018-08-16T20:32:58.407Z"
}