{
  "contractName": "Registry",
  "abi": [
    {
      "constant": false,
      "inputs": [],
      "name": "unpause",
      "outputs": [],
      "payable": false,
      "stateMutability": "nonpayable",
      "type": "function"
    },
    {
      "constant": true,
      "inputs": [],
      "name": "paused",
      "outputs": [
        {
          "name": "",
          "type": "bool"
        }
      ],
      "payable": false,
      "stateMutability": "view",
      "type": "function"
    },
    {
      "constant": true,
      "inputs": [
        {
          "name": "",
          "type": "bytes32"
        }
      ],
      "name": "nodePointers",
      "outputs": [
        {
          "name": "next",
          "type": "bytes32"
        },
        {
          "name": "stake",
          "type": "uint256"
        },
        {
          "name": "symbol",
          "type": "bytes32"
        }
      ],
      "payable": false,
      "stateMutability": "view",
      "type": "function"
    },
    {
      "constant": false,
      "inputs": [],
      "name": "renounceOwnership",
      "outputs": [],
      "payable": false,
      "stateMutability": "nonpayable",
      "type": "function"
    },
    {
      "constant": false,
      "inputs": [],
      "name": "pause",
      "outputs": [],
      "payable": false,
      "stateMutability": "nonpayable",
      "type": "function"
    },
    {
      "constant": true,
      "inputs": [],
      "name": "owner",
      "outputs": [
        {
          "name": "",
          "type": "address"
        }
      ],
      "payable": false,
      "stateMutability": "view",
      "type": "function"
    },
    {
      "constant": true,
      "inputs": [],
      "name": "head",
      "outputs": [
        {
          "name": "",
          "type": "bytes32"
        }
      ],
      "payable": false,
      "stateMutability": "view",
      "type": "function"
    },
    {
      "constant": false,
      "inputs": [
        {
          "name": "newOwner",
          "type": "address"
        }
      ],
      "name": "transferOwnership",
      "outputs": [],
      "payable": false,
      "stateMutability": "nonpayable",
      "type": "function"
    },
    {
      "constant": true,
      "inputs": [],
      "name": "stakePool",
      "outputs": [
        {
          "name": "",
          "type": "uint256"
        }
      ],
      "payable": false,
      "stateMutability": "view",
      "type": "function"
    },
    {
      "inputs": [],
      "payable": false,
      "stateMutability": "nonpayable",
      "type": "constructor"
    },
    {
      "anonymous": false,
      "inputs": [
        {
          "indexed": false,
          "name": "next",
          "type": "bytes32"
        },
        {
          "indexed": false,
          "name": "stake",
          "type": "uint256"
        },
        {
          "indexed": false,
          "name": "symbol",
          "type": "bytes32"
        }
      ],
      "name": "AddedNode",
      "type": "event"
    },
    {
      "anonymous": false,
      "inputs": [
        {
          "indexed": false,
          "name": "stake",
          "type": "uint256"
        },
        {
          "indexed": false,
          "name": "symbol",
          "type": "bytes32"
        }
      ],
      "name": "DeletedNode",
      "type": "event"
    },
    {
      "anonymous": false,
      "inputs": [],
      "name": "Pause",
      "type": "event"
    },
    {
      "anonymous": false,
      "inputs": [],
      "name": "Unpause",
      "type": "event"
    },
    {
      "anonymous": false,
      "inputs": [
        {
          "indexed": true,
          "name": "previousOwner",
          "type": "address"
        }
      ],
      "name": "OwnershipRenounced",
      "type": "event"
    },
    {
      "anonymous": false,
      "inputs": [
        {
          "indexed": true,
          "name": "previousOwner",
          "type": "address"
        },
        {
          "indexed": true,
          "name": "newOwner",
          "type": "address"
        }
      ],
      "name": "OwnershipTransferred",
      "type": "event"
    },
    {
      "constant": false,
      "inputs": [
        {
          "name": "_nodeSymbol",
          "type": "bytes32"
        }
      ],
      "name": "deleteNode",
      "outputs": [
        {
          "name": "",
          "type": "uint256"
        }
      ],
      "payable": false,
      "stateMutability": "nonpayable",
      "type": "function"
    },
    {
      "constant": false,
      "inputs": [
        {
          "name": "_newStake",
          "type": "uint256"
        },
        {
          "name": "_newSymbol",
          "type": "bytes32"
        }
      ],
      "name": "addNode",
      "outputs": [],
      "payable": false,
      "stateMutability": "nonpayable",
      "type": "function"
    }
  ],
  "bytecode": "0x608060405260008060146101000a81548160ff02191690831515021790555034801561002a57600080fd5b50336000806101000a81548173ffffffffffffffffffffffffffffffffffffffff021916908373ffffffffffffffffffffffffffffffffffffffff160217905550336000806101000a81548173ffffffffffffffffffffffffffffffffffffffff021916908373ffffffffffffffffffffffffffffffffffffffff160217905550610d20806100ba6000396000f3006080604052600436106100af576000357c0100000000000000000000000000000000000000000000000000000000900463ffffffff168063395cd40f146100b45780633f4ba83a146100ef5780635c975abb146101065780636d25160a14610135578063715018a6146101985780638456cb59146101af5780638da5cb5b146101c65780638f7dcfa31461021d578063f12a796b14610250578063f2fde38b14610295578063f8ea4756146102d8575b600080fd5b3480156100c057600080fd5b506100ed600480360381019080803590602001909291908035600019169060200190929190505050610303565b005b3480156100fb57600080fd5b50610104610613565b005b34801561011257600080fd5b5061011b6106d1565b604051808215151515815260200191505060405180910390f35b34801561014157600080fd5b5061016460048036038101908080356000191690602001909291905050506106e4565b6040518084600019166000191681526020018381526020018260001916600019168152602001935050505060405180910390f35b3480156101a457600080fd5b506101ad61070e565b005b3480156101bb57600080fd5b506101c4610810565b005b3480156101d257600080fd5b506101db6108d0565b604051808273ffffffffffffffffffffffffffffffffffffffff1673ffffffffffffffffffffffffffffffffffffffff16815260200191505060405180910390f35b34801561022957600080fd5b506102326108f5565b60405180826000191660001916815260200191505060405180910390f35b34801561025c57600080fd5b5061027f60048036038101908080356000191690602001909291905050506108fb565b6040518082815260200191505060405180910390f35b3480156102a157600080fd5b506102d6600480360381019080803573ffffffffffffffffffffffffffffffffffffffff169060200190929190505050610b71565b005b3480156102e457600080fd5b506102ed610cc6565b6040518082815260200191505060405180910390f35b6000806000610310610ccc565b60008060006001029550600254945060009350876004600082825401925050819055505b60006001026000191685600019161415156104df57600360008660001916600019168152602001908152602001600020600101549050878110156104b5576060604051908101604052808660001916815260200189815260200188600019168152509250826020015183604001514260405160200180848152602001836000191660001916815260200182815260200193505050506040516020818303038152906040526040518082805190602001908083835b60208310151561040d57805182526020820191506020810190506020830392506103e8565b6001836020036101000a0380198251168184511680821785525050505050509050019150506040518091039020915082600360008460001916600019168152602001908152602001600020600082015181600001906000191690556020820151816001015560408201518160020190600019169055905050816003600088600019166000191681526020019081526020016000206000018160001916905550600193506104da565b8495506003600086600019166000191681526020019081526020016000206000015494505b610334565b83151561060957606060405190810160405280600060010260001916815260200189815260200188600019168152509250826020015183604001514260405160200180848152602001836000191660001916815260200182815260200193505050506040516020818303038152906040526040518082805190602001908083835b6020831015156105855780518252602082019150602081019050602083039250610560565b6001836020036101000a038019825116818451168082178552505050505050905001915050604051809103902091508260036000846000191660001916815260200190815260200160002060008201518160000190600019169055602082015181600101556040820151816002019060001916905590505081600281600019169055505b5050505050505050565b6000809054906101000a900473ffffffffffffffffffffffffffffffffffffffff1673ffffffffffffffffffffffffffffffffffffffff163373ffffffffffffffffffffffffffffffffffffffff1614151561066e57600080fd5b600060149054906101000a900460ff16151561068957600080fd5b60008060146101000a81548160ff0219169083151502179055507f7805862f689e2f13df9f062ff482ad3ad112aca9e0847911ed832e158c525b3360405160405180910390a1565b600060149054906101000a900460ff1681565b60036020528060005260406000206000915090508060000154908060010154908060020154905083565b6000809054906101000a900473ffffffffffffffffffffffffffffffffffffffff1673ffffffffffffffffffffffffffffffffffffffff163373ffffffffffffffffffffffffffffffffffffffff1614151561076957600080fd5b6000809054906101000a900473ffffffffffffffffffffffffffffffffffffffff1673ffffffffffffffffffffffffffffffffffffffff167ff8df31144d9c2f0f6b59d69b8b98abd5459d07f2742c4df920b25aae33c6482060405160405180910390a260008060006101000a81548173ffffffffffffffffffffffffffffffffffffffff021916908373ffffffffffffffffffffffffffffffffffffffff160217905550565b6000809054906101000a900473ffffffffffffffffffffffffffffffffffffffff1673ffffffffffffffffffffffffffffffffffffffff163373ffffffffffffffffffffffffffffffffffffffff1614151561086b57600080fd5b600060149054906101000a900460ff1615151561088757600080fd5b6001600060146101000a81548160ff0219169083151502179055507f6985a02210a168e66602d3235cb6db0e70f92b3ba4d376a33c0f3d9434bff62560405160405180910390a1565b6000809054906101000a900473ffffffffffffffffffffffffffffffffffffffff1681565b60025481565b6000806000806000600102925060025491505b6000600102600019168260001916141515610b6457600360008360001916600019168152602001908152602001600020600201549050846040516020018082600019166000191681526020019150506040516020818303038152906040526040518082805190602001908083835b6020831015156109a1578051825260208201915060208101905060208303925061097c565b6001836020036101000a038019825116818451168082178552505050505050905001915050604051809103902060001916816040516020018082600019166000191681526020019150506040516020818303038152906040526040518082805190602001908083835b602083101515610a2f5780518252602082019150602081019050602083039250610a0a565b6001836020036101000a0380198251168184511680821785525050505050509050019150506040518091039020600019161415610b3b576003600083600019166000191681526020019081526020016000206001015460045403600481905550600060010283600019161415610acf5760036000600254600019166000191681526020019081526020016000206000015460028160001916905550610b15565b6003600083600019166000191681526020019081526020016000206000015460036000856000191660001916815260200190815260200160002060000181600019169055505b600360008360001916600019168152602001908152602001600020600101549350610b69565b81925060036000836000191660001916815260200190815260200160002060000154915061090e565b600093505b505050919050565b6000809054906101000a900473ffffffffffffffffffffffffffffffffffffffff1673ffffffffffffffffffffffffffffffffffffffff163373ffffffffffffffffffffffffffffffffffffffff16141515610bcc57600080fd5b600073ffffffffffffffffffffffffffffffffffffffff168173ffffffffffffffffffffffffffffffffffffffff1614151515610c0857600080fd5b8073ffffffffffffffffffffffffffffffffffffffff166000809054906101000a900473ffffffffffffffffffffffffffffffffffffffff1673ffffffffffffffffffffffffffffffffffffffff167f8be0079c531659141344cd1fd0a4f28419497f9722a3daafe3b4186f6b6457e060405160405180910390a3806000806101000a81548173ffffffffffffffffffffffffffffffffffffffff021916908373ffffffffffffffffffffffffffffffffffffffff16021790555050565b60045481565b60606040519081016040528060008019168152602001600081526020016000801916815250905600a165627a7a72305820e3c379ec1e80d88304b93f101dec50beaab84fd785b794773cabc32184807c500029",
  "source": "pragma solidity ^0.4.23;\n\nimport \"./Pausable.sol\";\n\ncontract Registry is Pausable{\n\n\tmapping(string => address[]) symbolToStakers; \n\n\tconstructor() public{\n\n\t\towner = msg.sender;\n\t\t\n\t}\n\n\n\n\n\n\t/*\n\t\tLinkedList Implementation\n\t*/\n\n\tevent AddedNode(bytes32 next, uint256 stake,bytes32 symbol);\n\tevent DeletedNode(uint256 stake, bytes32 symbol);\n\n\tbytes32 public head;\n\tmapping(bytes32 => Node) public nodePointers;\n\tuint256 public stakePool;\n\n\tstruct Node{\n\t\tbytes32 next;\n\t\tuint256 stake;\n\t\tbytes32 symbol;\n\t}\n\n\tfunction deleteNode(bytes32 _nodeSymbol) public returns(uint256){\n\t\tbytes32 prevPointer = bytes32(0);\n\t\tbytes32 curPointer = head;\n\t\twhile(curPointer != bytes32(0)){\n\t\t\tbytes32 curSymbol = nodePointers[curPointer].symbol;\n\t\t\tif(keccak256(abi.encodePacked(curSymbol)) == keccak256(abi.encodePacked(_nodeSymbol))){\n\t\t\t\tstakePool = stakePool - nodePointers[curPointer].stake;\n\t\t\t\t//If you are at head node\n\t\t\t\tif(prevPointer == 0){\n\t\t\t\t\thead = nodePointers[head].next;\n\t\t\t\t}\n\t\t\t\t//If you are not at head node\n\t\t\t\telse {\n\t\t\t\t\tnodePointers[prevPointer].next = nodePointers[curPointer].next;\n\t\t\t\t}\n\t\t\t\treturn nodePointers[curPointer].stake;\n\t\t\t}\n\t\t\tprevPointer = curPointer;\n\t\t\tcurPointer = nodePointers[curPointer].next;\n\t\t}\n\t\treturn 0;\n\t}\n\n\tfunction addNode(uint256 _newStake, bytes32 _newSymbol) public {\n\t\tbytes32 prevPointer = bytes32(0);\n\t\tbytes32 curPointer = head;\n\t\tbool added = false;\n\t\tNode memory newNode;\n\t\tbytes32 newPointer;\n\t\tstakePool += _newStake;\n\t\twhile(curPointer != bytes32(0)){\n\t\t\tuint256 curStake = nodePointers[curPointer].stake;\n\t\t\tif(curStake < _newStake){\n\t\t\t\tnewNode = Node(curPointer, _newStake, _newSymbol);\n\t\t\t\tnewPointer = keccak256(abi.encodePacked(newNode.stake, newNode.symbol, now));\n\t\t\t\tnodePointers[newPointer] = newNode;\n\t\t\t\tnodePointers[prevPointer].next = newPointer;\n\t\t\t\tadded = true;\n\t\t\t} else {\n\t\t\t\tprevPointer = curPointer;\n\t\t\t\tcurPointer = nodePointers[curPointer].next;\n\t\t\t}\n\t\t}\n\t\tif(!added){\n\t\t\tnewNode = Node(bytes32(0), _newStake, _newSymbol);\n\t\t\tnewPointer = keccak256(abi.encodePacked(newNode.stake, newNode.symbol, now));\n\t\t\tnodePointers[newPointer] = newNode;\n\t\t\thead = newPointer;\n\t\t}\n\t}\n}",
  "sourcePath": "/Users/talaltoukan/Documents/Blockchain/ShitList/contracts/Registry.sol",
  "compiler": {
    "name": "solc",
    "version": "0.4.24+commit.e67f0147.Emscripten.clang"
  },
  "schemaVersion": "2.0.1",
  "updatedAt": "2018-08-17T14:01:43.562Z"
}