{
  "contractName": "Registry",
  "abi": [
    {
      "constant": false,
      "inputs": [],
      "name": "unpause",
      "outputs": [],
      "payable": false,
      "stateMutability": "nonpayable",
      "type": "function"
    },
    {
      "constant": true,
      "inputs": [],
      "name": "paused",
      "outputs": [
        {
          "name": "",
          "type": "bool"
        }
      ],
      "payable": false,
      "stateMutability": "view",
      "type": "function"
    },
    {
      "constant": true,
      "inputs": [
        {
          "name": "",
          "type": "bytes32"
        }
      ],
      "name": "nodePointers",
      "outputs": [
        {
          "name": "next",
          "type": "bytes32"
        },
        {
          "name": "stake",
          "type": "uint256"
        },
        {
          "name": "symbol",
          "type": "bytes32"
        }
      ],
      "payable": false,
      "stateMutability": "view",
      "type": "function"
    },
    {
      "constant": false,
      "inputs": [],
      "name": "renounceOwnership",
      "outputs": [],
      "payable": false,
      "stateMutability": "nonpayable",
      "type": "function"
    },
    {
      "constant": false,
      "inputs": [],
      "name": "pause",
      "outputs": [],
      "payable": false,
      "stateMutability": "nonpayable",
      "type": "function"
    },
    {
      "constant": true,
      "inputs": [],
      "name": "owner",
      "outputs": [
        {
          "name": "",
          "type": "address"
        }
      ],
      "payable": false,
      "stateMutability": "view",
      "type": "function"
    },
    {
      "constant": true,
      "inputs": [],
      "name": "head",
      "outputs": [
        {
          "name": "",
          "type": "bytes32"
        }
      ],
      "payable": false,
      "stateMutability": "view",
      "type": "function"
    },
    {
      "constant": false,
      "inputs": [
        {
          "name": "newOwner",
          "type": "address"
        }
      ],
      "name": "transferOwnership",
      "outputs": [],
      "payable": false,
      "stateMutability": "nonpayable",
      "type": "function"
    },
    {
      "constant": true,
      "inputs": [],
      "name": "stakePool",
      "outputs": [
        {
          "name": "",
          "type": "uint256"
        }
      ],
      "payable": false,
      "stateMutability": "view",
      "type": "function"
    },
    {
      "inputs": [],
      "payable": false,
      "stateMutability": "nonpayable",
      "type": "constructor"
    },
    {
      "anonymous": false,
      "inputs": [
        {
          "indexed": false,
          "name": "next",
          "type": "bytes32"
        },
        {
          "indexed": false,
          "name": "stake",
          "type": "uint256"
        },
        {
          "indexed": false,
          "name": "symbol",
          "type": "bytes32"
        }
      ],
      "name": "AddedNode",
      "type": "event"
    },
    {
      "anonymous": false,
      "inputs": [
        {
          "indexed": false,
          "name": "stake",
          "type": "uint256"
        },
        {
          "indexed": false,
          "name": "symbol",
          "type": "bytes32"
        }
      ],
      "name": "DeletedNode",
      "type": "event"
    },
    {
      "anonymous": false,
      "inputs": [],
      "name": "Pause",
      "type": "event"
    },
    {
      "anonymous": false,
      "inputs": [],
      "name": "Unpause",
      "type": "event"
    },
    {
      "anonymous": false,
      "inputs": [
        {
          "indexed": true,
          "name": "previousOwner",
          "type": "address"
        }
      ],
      "name": "OwnershipRenounced",
      "type": "event"
    },
    {
      "anonymous": false,
      "inputs": [
        {
          "indexed": true,
          "name": "previousOwner",
          "type": "address"
        },
        {
          "indexed": true,
          "name": "newOwner",
          "type": "address"
        }
      ],
      "name": "OwnershipTransferred",
      "type": "event"
    },
    {
      "constant": false,
      "inputs": [
        {
          "name": "symbolStr",
          "type": "string"
        }
      ],
      "name": "stake",
      "outputs": [],
      "payable": true,
      "stateMutability": "payable",
      "type": "function"
    },
    {
      "constant": true,
      "inputs": [],
      "name": "getTop10",
      "outputs": [
        {
          "name": "",
          "type": "bytes32[10]"
        }
      ],
      "payable": false,
      "stateMutability": "view",
      "type": "function"
    },
    {
      "constant": false,
      "inputs": [
        {
          "name": "_nodeSymbol",
          "type": "bytes32"
        }
      ],
      "name": "deleteNode",
      "outputs": [
        {
          "name": "",
          "type": "uint256"
        }
      ],
      "payable": false,
      "stateMutability": "nonpayable",
      "type": "function"
    },
    {
      "constant": false,
      "inputs": [
        {
          "name": "_newStake",
          "type": "uint256"
        },
        {
          "name": "_newSymbol",
          "type": "bytes32"
        }
      ],
      "name": "addNode",
      "outputs": [],
      "payable": false,
      "stateMutability": "nonpayable",
      "type": "function"
    },
    {
      "constant": true,
      "inputs": [],
      "name": "getStakePool",
      "outputs": [
        {
          "name": "",
          "type": "uint256"
        }
      ],
      "payable": false,
      "stateMutability": "view",
      "type": "function"
    }
  ],
  "bytecode": "0x608060405260008060146101000a81548160ff02191690831515021790555034801561002a57600080fd5b50336000806101000a81548173ffffffffffffffffffffffffffffffffffffffff021916908373ffffffffffffffffffffffffffffffffffffffff160217905550336000806101000a81548173ffffffffffffffffffffffffffffffffffffffff021916908373ffffffffffffffffffffffffffffffffffffffff16021790555061100d806100ba6000396000f3006080604052600436106100d0576000357c0100000000000000000000000000000000000000000000000000000000900463ffffffff168063395cd40f146100d55780633f4ba83a1461011057806346f45b8d146101275780635c975abb146101835780636d25160a146101b2578063715018a6146102155780637d5e7c321461022c5780638456cb591461025757806384837ee11461026e5780638da5cb5b146102c15780638f7dcfa314610318578063f12a796b1461034b578063f2fde38b14610390578063f8ea4756146103d3575b600080fd5b3480156100e157600080fd5b5061010e6004803603810190808035906020019092919080356000191690602001909291905050506103fe565b005b34801561011c57600080fd5b5061012561070e565b005b610181600480360381019080803590602001908201803590602001908080601f01602080910402602001604051908101604052809392919081815260200183838082843782019150505050505091929192905050506107cc565b005b34801561018f57600080fd5b506101986108ac565b604051808215151515815260200191505060405180910390f35b3480156101be57600080fd5b506101e160048036038101908080356000191690602001909291905050506108bf565b6040518084600019166000191681526020018381526020018260001916600019168152602001935050505060405180910390f35b34801561022157600080fd5b5061022a6108e9565b005b34801561023857600080fd5b506102416109eb565b6040518082815260200191505060405180910390f35b34801561026357600080fd5b5061026c6109f5565b005b34801561027a57600080fd5b50610283610ab5565b6040518082600a60200280838360005b838110156102ae578082015181840152602081019050610293565b5050505090500191505060405180910390f35b3480156102cd57600080fd5b506102d6610b6e565b604051808273ffffffffffffffffffffffffffffffffffffffff1673ffffffffffffffffffffffffffffffffffffffff16815260200191505060405180910390f35b34801561032457600080fd5b5061032d610b93565b60405180826000191660001916815260200191505060405180910390f35b34801561035757600080fd5b5061037a6004803603810190808035600019169060200190929190505050610b99565b6040518082815260200191505060405180910390f35b34801561039c57600080fd5b506103d1600480360381019080803573ffffffffffffffffffffffffffffffffffffffff169060200190929190505050610e0f565b005b3480156103df57600080fd5b506103e8610f64565b6040518082815260200191505060405180910390f35b600080600061040b610f95565b60008060006001029550600254945060009350876004600082825401925050819055505b60006001026000191685600019161415156105da57600360008660001916600019168152602001908152602001600020600101549050878110156105b0576060604051908101604052808660001916815260200189815260200188600019168152509250826020015183604001514260405160200180848152602001836000191660001916815260200182815260200193505050506040516020818303038152906040526040518082805190602001908083835b60208310151561050857805182526020820191506020810190506020830392506104e3565b6001836020036101000a0380198251168184511680821785525050505050509050019150506040518091039020915082600360008460001916600019168152602001908152602001600020600082015181600001906000191690556020820151816001015560408201518160020190600019169055905050816003600088600019166000191681526020019081526020016000206000018160001916905550600193506105d5565b8495506003600086600019166000191681526020019081526020016000206000015494505b61042f565b83151561070457606060405190810160405280600060010260001916815260200189815260200188600019168152509250826020015183604001514260405160200180848152602001836000191660001916815260200182815260200193505050506040516020818303038152906040526040518082805190602001908083835b602083101515610680578051825260208201915060208101905060208303925061065b565b6001836020036101000a038019825116818451168082178552505050505050905001915050604051809103902091508260036000846000191660001916815260200190815260200160002060008201518160000190600019169055602082015181600101556040820151816002019060001916905590505081600281600019169055505b5050505050505050565b6000809054906101000a900473ffffffffffffffffffffffffffffffffffffffff1673ffffffffffffffffffffffffffffffffffffffff163373ffffffffffffffffffffffffffffffffffffffff1614151561076957600080fd5b600060149054906101000a900460ff16151561078457600080fd5b60008060146101000a81548160ff0219169083151502179055507f7805862f689e2f13df9f062ff482ad3ad112aca9e0847911ed832e158c525b3360405160405180910390a1565b6000806107d883610f6a565b9150600060016000846000191660001916815260200190815260200160002080549050141561081d5761080a82610b99565b9050610818813401836103fe565b610828565b61082734836103fe565b5b6001600083600019166000191681526020019081526020016000203390806001815401808255809150509060018203906000526020600020016000909192909190916101000a81548173ffffffffffffffffffffffffffffffffffffffff021916908373ffffffffffffffffffffffffffffffffffffffff16021790555050505050565b600060149054906101000a900460ff1681565b60036020528060005260406000206000915090508060000154908060010154908060020154905083565b6000809054906101000a900473ffffffffffffffffffffffffffffffffffffffff1673ffffffffffffffffffffffffffffffffffffffff163373ffffffffffffffffffffffffffffffffffffffff1614151561094457600080fd5b6000809054906101000a900473ffffffffffffffffffffffffffffffffffffffff1673ffffffffffffffffffffffffffffffffffffffff167ff8df31144d9c2f0f6b59d69b8b98abd5459d07f2742c4df920b25aae33c6482060405160405180910390a260008060006101000a81548173ffffffffffffffffffffffffffffffffffffffff021916908373ffffffffffffffffffffffffffffffffffffffff160217905550565b6000600454905090565b6000809054906101000a900473ffffffffffffffffffffffffffffffffffffffff1673ffffffffffffffffffffffffffffffffffffffff163373ffffffffffffffffffffffffffffffffffffffff16141515610a5057600080fd5b600060149054906101000a900460ff16151515610a6c57600080fd5b6001600060146101000a81548160ff0219169083151502179055507f6985a02210a168e66602d3235cb6db0e70f92b3ba4d376a33c0f3d9434bff62560405160405180910390a1565b610abd610fbd565b610ac5610fbd565b60008060006002549250600091505b600a821015610b64576000600102600019168360001916141515610b5757600360008460001916600019168152602001908152602001600020600201549050808483600a81101515610b2257fe5b602002019060001916908160001916815250506003600084600019166000191681526020019081526020016000206000015492505b8180600101925050610ad4565b8394505050505090565b6000809054906101000a900473ffffffffffffffffffffffffffffffffffffffff1681565b60025481565b6000806000806000600102925060025491505b6000600102600019168260001916141515610e0257600360008360001916600019168152602001908152602001600020600201549050846040516020018082600019166000191681526020019150506040516020818303038152906040526040518082805190602001908083835b602083101515610c3f5780518252602082019150602081019050602083039250610c1a565b6001836020036101000a038019825116818451168082178552505050505050905001915050604051809103902060001916816040516020018082600019166000191681526020019150506040516020818303038152906040526040518082805190602001908083835b602083101515610ccd5780518252602082019150602081019050602083039250610ca8565b6001836020036101000a0380198251168184511680821785525050505050509050019150506040518091039020600019161415610dd9576003600083600019166000191681526020019081526020016000206001015460045403600481905550600060010283600019161415610d6d5760036000600254600019166000191681526020019081526020016000206000015460028160001916905550610db3565b6003600083600019166000191681526020019081526020016000206000015460036000856000191660001916815260200190815260200160002060000181600019169055505b600360008360001916600019168152602001908152602001600020600101549350610e07565b819250600360008360001916600019168152602001908152602001600020600001549150610bac565b600093505b505050919050565b6000809054906101000a900473ffffffffffffffffffffffffffffffffffffffff1673ffffffffffffffffffffffffffffffffffffffff163373ffffffffffffffffffffffffffffffffffffffff16141515610e6a57600080fd5b600073ffffffffffffffffffffffffffffffffffffffff168173ffffffffffffffffffffffffffffffffffffffff1614151515610ea657600080fd5b8073ffffffffffffffffffffffffffffffffffffffff166000809054906101000a900473ffffffffffffffffffffffffffffffffffffffff1673ffffffffffffffffffffffffffffffffffffffff167f8be0079c531659141344cd1fd0a4f28419497f9722a3daafe3b4186f6b6457e060405160405180910390a3806000806101000a81548173ffffffffffffffffffffffffffffffffffffffff021916908373ffffffffffffffffffffffffffffffffffffffff16021790555050565b60045481565b60006060829050600081511415610f875760006001029150610f8f565b602083015191505b50919050565b6060604051908101604052806000801916815260200160008152602001600080191681525090565b61014060405190810160405280600a906020820280388339808201915050905050905600a165627a7a72305820f41e738a4c0258aba235a814f5552fc0a1509e68811031afcd15510627c6c82e0029",
  "source": "pragma solidity ^0.4.23;\n\nimport \"./Pausable.sol\";\nimport \"./RegistryHelper.sol\";\n\ncontract Registry is Pausable, RegistryHelper{\n\n\tmapping(bytes32 => address[]) symbolToStakers;\n\n\tconstructor() public{\n\n\t\towner = msg.sender;\n\t\t\n\t}\n\n\tfunction stake(string symbolStr) public payable {\n\t\tbytes32 sym = stringToBytes32(symbolStr);\n\t\tif(symbolToStakers[sym].length == 0){\n\t\t\tuint256 prevStake = deleteNode(sym);\n\t\t\taddNode(msg.value + prevStake, sym);\n\t\t} else {\n\t\t\taddNode(msg.value, sym);\n\t\t}\n\t\tsymbolToStakers[sym].push(msg.sender);\n\t}\n\n\tfunction getTop10() public view returns (bytes32[10]){\n\t\tbytes32[10] memory top10;\n\t\tbytes32 curP = head;\n\t\tfor(uint256 i = 0; i < 10; i++){\n\t\t\tif(curP != bytes32(0)){\n\t\t\t\tbytes32 curSym = nodePointers[curP].symbol;\n\t\t\t\ttop10[i] = curSym;\n\t\t\t\tcurP = nodePointers[curP].next;\n\t\t\t}\n\t\t}\n\t\treturn top10;\n\t}\n\n\t/*\n\t\tLinkedList Implementation\n\t*/\n\n\tevent AddedNode(bytes32 next, uint256 stake,bytes32 symbol);\n\tevent DeletedNode(uint256 stake, bytes32 symbol);\n\n\tbytes32 public head;\n\tmapping(bytes32 => Node) public nodePointers;\n\tuint256 public stakePool;\n\n\tstruct Node{\n\t\tbytes32 next;\n\t\tuint256 stake;\n\t\tbytes32 symbol;\n\t}\n\n\tfunction deleteNode(bytes32 _nodeSymbol) public returns(uint256){\n\t\tbytes32 prevPointer = bytes32(0);\n\t\tbytes32 curPointer = head;\n\t\twhile(curPointer != bytes32(0)){\n\t\t\tbytes32 curSymbol = nodePointers[curPointer].symbol;\n\t\t\tif(keccak256(abi.encodePacked(curSymbol)) == keccak256(abi.encodePacked(_nodeSymbol))){\n\t\t\t\tstakePool = stakePool - nodePointers[curPointer].stake;\n\t\t\t\t//If you are at head node\n\t\t\t\tif(prevPointer == 0){\n\t\t\t\t\thead = nodePointers[head].next;\n\t\t\t\t}\n\t\t\t\t//If you are not at head node\n\t\t\t\telse {\n\t\t\t\t\tnodePointers[prevPointer].next = nodePointers[curPointer].next;\n\t\t\t\t}\n\t\t\t\treturn nodePointers[curPointer].stake;\n\t\t\t}\n\t\t\tprevPointer = curPointer;\n\t\t\tcurPointer = nodePointers[curPointer].next;\n\t\t}\n\t\treturn 0;\n\t}\n\n\tfunction addNode(uint256 _newStake, bytes32 _newSymbol) public {\n\t\tbytes32 prevPointer = bytes32(0);\n\t\tbytes32 curPointer = head;\n\t\tbool added = false;\n\t\tNode memory newNode;\n\t\tbytes32 newPointer;\n\t\tstakePool += _newStake;\n\t\twhile(curPointer != bytes32(0)){\n\t\t\tuint256 curStake = nodePointers[curPointer].stake;\n\t\t\tif(curStake < _newStake){\n\t\t\t\tnewNode = Node(curPointer, _newStake, _newSymbol);\n\t\t\t\tnewPointer = keccak256(abi.encodePacked(newNode.stake, newNode.symbol, now));\n\t\t\t\tnodePointers[newPointer] = newNode;\n\t\t\t\tnodePointers[prevPointer].next = newPointer;\n\t\t\t\tadded = true;\n\t\t\t} else {\n\t\t\t\tprevPointer = curPointer;\n\t\t\t\tcurPointer = nodePointers[curPointer].next;\n\t\t\t}\n\t\t}\n\t\tif(!added){\n\t\t\tnewNode = Node(bytes32(0), _newStake, _newSymbol);\n\t\t\tnewPointer = keccak256(abi.encodePacked(newNode.stake, newNode.symbol, now));\n\t\t\tnodePointers[newPointer] = newNode;\n\t\t\thead = newPointer;\n\t\t}\n\t}\n\n\tfunction getStakePool() public view returns (uint256){\n\t\treturn stakePool;\n\t}\n\n}",
  "sourcePath": "/Users/talaltoukan/Documents/Blockchain/ShitList/contracts/Registry.sol",
  "compiler": {
    "name": "solc",
    "version": "0.4.24+commit.e67f0147.Emscripten.clang"
  },
  "schemaVersion": "2.0.1",
  "updatedAt": "2018-08-17T16:05:28.177Z"
}